:020000040000FA
:040000000034003494
:06000A0012309400831681
:1000100000309400103086000030870003178312F0
:100020009E000313071432309400071080309300B1
:100030008316141C192883123F2042309300831624
:10004000141C202883123F20003093008316141CB8
:10005000272883123F20003093008316141C2E287B
:1000600083123F20003093008316141C352883121E
:100070003F20831207143F203F203F2015280330E4
:0E008000C000C100C00B4228C10B422808007E
:02400E00E23F8F
:00000001FF
